{
  "_format": "hh-sol-artifact-1",
  "contractName": "Token721",
  "sourceName": "contracts/Token721.sol",
  "abi": [
    {
      "inputs": [
        {
          "internalType": "string",
          "name": "_name",
          "type": "string"
        },
        {
          "internalType": "string",
          "name": "_symbol",
          "type": "string"
        },
        {
          "internalType": "string",
          "name": "_metadataURI",
          "type": "string"
        },
        {
          "internalType": "enum License.LicenseVersion",
          "name": "_license",
          "type": "uint8"
        }
      ],
      "stateMutability": "nonpayable",
      "type": "constructor"
    },
    {
      "anonymous": false,
      "inputs": [
        {
          "indexed": true,
          "internalType": "address",
          "name": "owner",
          "type": "address"
        },
        {
          "indexed": true,
          "internalType": "address",
          "name": "approved",
          "type": "address"
        },
        {
          "indexed": true,
          "internalType": "uint256",
          "name": "tokenId",
          "type": "uint256"
        }
      ],
      "name": "Approval",
      "type": "event"
    },
    {
      "anonymous": false,
      "inputs": [
        {
          "indexed": true,
          "internalType": "address",
          "name": "owner",
          "type": "address"
        },
        {
          "indexed": true,
          "internalType": "address",
          "name": "operator",
          "type": "address"
        },
        {
          "indexed": false,
          "internalType": "bool",
          "name": "approved",
          "type": "bool"
        }
      ],
      "name": "ApprovalForAll",
      "type": "event"
    },
    {
      "anonymous": false,
      "inputs": [
        {
          "indexed": false,
          "internalType": "string",
          "name": "_metadataUri",
          "type": "string"
        }
      ],
      "name": "MetadataUriChanged",
      "type": "event"
    },
    {
      "anonymous": false,
      "inputs": [
        {
          "indexed": false,
          "internalType": "uint256",
          "name": "_tokenId",
          "type": "uint256"
        },
        {
          "indexed": false,
          "internalType": "string",
          "name": "_tokenURI",
          "type": "string"
        }
      ],
      "name": "TokenMinted",
      "type": "event"
    },
    {
      "anonymous": false,
      "inputs": [
        {
          "indexed": true,
          "internalType": "address",
          "name": "from",
          "type": "address"
        },
        {
          "indexed": true,
          "internalType": "address",
          "name": "to",
          "type": "address"
        },
        {
          "indexed": true,
          "internalType": "uint256",
          "name": "tokenId",
          "type": "uint256"
        }
      ],
      "name": "Transfer",
      "type": "event"
    },
    {
      "inputs": [
        {
          "internalType": "address",
          "name": "to",
          "type": "address"
        },
        {
          "internalType": "uint256",
          "name": "tokenId",
          "type": "uint256"
        }
      ],
      "name": "approve",
      "outputs": [],
      "stateMutability": "nonpayable",
      "type": "function"
    },
    {
      "inputs": [
        {
          "internalType": "address",
          "name": "owner",
          "type": "address"
        }
      ],
      "name": "balanceOf",
      "outputs": [
        {
          "internalType": "uint256",
          "name": "",
          "type": "uint256"
        }
      ],
      "stateMutability": "view",
      "type": "function"
    },
    {
      "inputs": [
        {
          "internalType": "uint256",
          "name": "tokenId",
          "type": "uint256"
        }
      ],
      "name": "getApproved",
      "outputs": [
        {
          "internalType": "address",
          "name": "",
          "type": "address"
        }
      ],
      "stateMutability": "view",
      "type": "function"
    },
    {
      "inputs": [],
      "name": "getCreatorAddress",
      "outputs": [
        {
          "internalType": "address",
          "name": "",
          "type": "address"
        }
      ],
      "stateMutability": "view",
      "type": "function"
    },
    {
      "inputs": [],
      "name": "getLicenseName",
      "outputs": [
        {
          "internalType": "string",
          "name": "",
          "type": "string"
        }
      ],
      "stateMutability": "view",
      "type": "function"
    },
    {
      "inputs": [],
      "name": "getLicenseURI",
      "outputs": [
        {
          "internalType": "string",
          "name": "",
          "type": "string"
        }
      ],
      "stateMutability": "view",
      "type": "function"
    },
    {
      "inputs": [
        {
          "internalType": "address",
          "name": "owner",
          "type": "address"
        },
        {
          "internalType": "address",
          "name": "operator",
          "type": "address"
        }
      ],
      "name": "isApprovedForAll",
      "outputs": [
        {
          "internalType": "bool",
          "name": "",
          "type": "bool"
        }
      ],
      "stateMutability": "view",
      "type": "function"
    },
    {
      "inputs": [],
      "name": "licenseVersion",
      "outputs": [
        {
          "internalType": "enum License.LicenseVersion",
          "name": "",
          "type": "uint8"
        }
      ],
      "stateMutability": "view",
      "type": "function"
    },
    {
      "inputs": [
        {
          "internalType": "address",
          "name": "to_",
          "type": "address"
        },
        {
          "internalType": "string",
          "name": "tokenURI_",
          "type": "string"
        }
      ],
      "name": "mint",
      "outputs": [],
      "stateMutability": "nonpayable",
      "type": "function"
    },
    {
      "inputs": [],
      "name": "name",
      "outputs": [
        {
          "internalType": "string",
          "name": "",
          "type": "string"
        }
      ],
      "stateMutability": "view",
      "type": "function"
    },
    {
      "inputs": [
        {
          "internalType": "uint256",
          "name": "tokenId",
          "type": "uint256"
        }
      ],
      "name": "ownerOf",
      "outputs": [
        {
          "internalType": "address",
          "name": "",
          "type": "address"
        }
      ],
      "stateMutability": "view",
      "type": "function"
    },
    {
      "inputs": [
        {
          "internalType": "address",
          "name": "from",
          "type": "address"
        },
        {
          "internalType": "address",
          "name": "to",
          "type": "address"
        },
        {
          "internalType": "uint256",
          "name": "tokenId",
          "type": "uint256"
        }
      ],
      "name": "safeTransferFrom",
      "outputs": [],
      "stateMutability": "nonpayable",
      "type": "function"
    },
    {
      "inputs": [
        {
          "internalType": "address",
          "name": "from",
          "type": "address"
        },
        {
          "internalType": "address",
          "name": "to",
          "type": "address"
        },
        {
          "internalType": "uint256",
          "name": "tokenId",
          "type": "uint256"
        },
        {
          "internalType": "bytes",
          "name": "data",
          "type": "bytes"
        }
      ],
      "name": "safeTransferFrom",
      "outputs": [],
      "stateMutability": "nonpayable",
      "type": "function"
    },
    {
      "inputs": [
        {
          "internalType": "address",
          "name": "operator",
          "type": "address"
        },
        {
          "internalType": "bool",
          "name": "approved",
          "type": "bool"
        }
      ],
      "name": "setApprovalForAll",
      "outputs": [],
      "stateMutability": "nonpayable",
      "type": "function"
    },
    {
      "inputs": [
        {
          "internalType": "string",
          "name": "_metadataURI",
          "type": "string"
        }
      ],
      "name": "setCollectionMetadataURI",
      "outputs": [],
      "stateMutability": "nonpayable",
      "type": "function"
    },
    {
      "inputs": [
        {
          "internalType": "bytes4",
          "name": "interfaceId",
          "type": "bytes4"
        }
      ],
      "name": "supportsInterface",
      "outputs": [
        {
          "internalType": "bool",
          "name": "",
          "type": "bool"
        }
      ],
      "stateMutability": "view",
      "type": "function"
    },
    {
      "inputs": [],
      "name": "symbol",
      "outputs": [
        {
          "internalType": "string",
          "name": "",
          "type": "string"
        }
      ],
      "stateMutability": "view",
      "type": "function"
    },
    {
      "inputs": [
        {
          "internalType": "uint256",
          "name": "tokenId",
          "type": "uint256"
        }
      ],
      "name": "tokenURI",
      "outputs": [
        {
          "internalType": "string",
          "name": "",
          "type": "string"
        }
      ],
      "stateMutability": "view",
      "type": "function"
    },
    {
      "inputs": [
        {
          "internalType": "address",
          "name": "from",
          "type": "address"
        },
        {
          "internalType": "address",
          "name": "to",
          "type": "address"
        },
        {
          "internalType": "uint256",
          "name": "tokenId",
          "type": "uint256"
        }
      ],
      "name": "transferFrom",
      "outputs": [],
      "stateMutability": "nonpayable",
      "type": "function"
    }
  ],
  "bytecode": "0x608060405260006009553480156200001657600080fd5b50604051620036733803806200367383398181016040528101906200003c919062000382565b8084848160009080519060200190620000579291906200010d565b508060019080519060200190620000709291906200010d565b505050600160078190555080600860006101000a81548160ff02191690836005811115620000a357620000a262000451565b5b02179055505032600a60006101000a81548173ffffffffffffffffffffffffffffffffffffffff021916908373ffffffffffffffffffffffffffffffffffffffff16021790555081600b9080519060200190620001029291906200010d565b5050505050620004e4565b8280546200011b90620004af565b90600052602060002090601f0160209004810192826200013f57600085556200018b565b82601f106200015a57805160ff19168380011785556200018b565b828001600101855582156200018b579182015b828111156200018a5782518255916020019190600101906200016d565b5b5090506200019a91906200019e565b5090565b5b80821115620001b95760008160009055506001016200019f565b5090565b6000604051905090565b600080fd5b600080fd5b600080fd5b600080fd5b6000601f19601f8301169050919050565b7f4e487b7100000000000000000000000000000000000000000000000000000000600052604160045260246000fd5b6200022682620001db565b810181811067ffffffffffffffff82111715620002485762000247620001ec565b5b80604052505050565b60006200025d620001bd565b90506200026b82826200021b565b919050565b600067ffffffffffffffff8211156200028e576200028d620001ec565b5b6200029982620001db565b9050602081019050919050565b60005b83811015620002c6578082015181840152602081019050620002a9565b83811115620002d6576000848401525b50505050565b6000620002f3620002ed8462000270565b62000251565b905082815260208101848484011115620003125762000311620001d6565b5b6200031f848285620002a6565b509392505050565b600082601f8301126200033f576200033e620001d1565b5b815162000351848260208601620002dc565b91505092915050565b600681106200036857600080fd5b50565b6000815190506200037c816200035a565b92915050565b600080600080608085870312156200039f576200039e620001c7565b5b600085015167ffffffffffffffff811115620003c057620003bf620001cc565b5b620003ce8782880162000327565b945050602085015167ffffffffffffffff811115620003f257620003f1620001cc565b5b620004008782880162000327565b935050604085015167ffffffffffffffff811115620004245762000423620001cc565b5b620004328782880162000327565b925050606062000445878288016200036b565b91505092959194509250565b7f4e487b7100000000000000000000000000000000000000000000000000000000600052602160045260246000fd5b7f4e487b7100000000000000000000000000000000000000000000000000000000600052602260045260246000fd5b60006002820490506001821680620004c857607f821691505b602082108103620004de57620004dd62000480565b5b50919050565b61317f80620004f46000396000f3fe608060405234801561001057600080fd5b50600436106101215760003560e01c806394d2d7a7116100ad578063c7db289311610071578063c7db289314610308578063c87b56dd14610326578063d0def52114610356578063e985e9c514610372578063ebc349ee146103a257610121565b806394d2d7a71461027657806395d89b4114610294578063a22cb465146102b2578063a341793b146102ce578063b88d4fde146102ec57610121565b806323b872dd116100f457806323b872dd146101c057806342842e0e146101dc57806350a5292f146101f85780636352211e1461021657806370a082311461024657610121565b806301ffc9a71461012657806306fdde0314610156578063081812fc14610174578063095ea7b3146101a4575b600080fd5b610140600480360381019061013b9190611f3d565b6103be565b60405161014d9190611f85565b60405180910390f35b61015e6103e0565b60405161016b9190612039565b60405180910390f35b61018e60048036038101906101899190612091565b610472565b60405161019b91906120ff565b60405180910390f35b6101be60048036038101906101b99190612146565b6104b8565b005b6101da60048036038101906101d59190612186565b6105cf565b005b6101f660048036038101906101f19190612186565b61062f565b005b61020061064f565b60405161020d9190612250565b60405180910390f35b610230600480360381019061022b9190612091565b610662565b60405161023d91906120ff565b60405180910390f35b610260600480360381019061025b919061226b565b610713565b60405161026d91906122a7565b60405180910390f35b61027e6107ca565b60405161028b91906120ff565b60405180910390f35b61029c6107f4565b6040516102a99190612039565b60405180910390f35b6102cc60048036038101906102c791906122ee565b610886565b005b6102d661089c565b6040516102e39190612039565b60405180910390f35b61030660048036038101906103019190612463565b6108bb565b005b61031061091d565b60405161031d9190612039565b60405180910390f35b610340600480360381019061033b9190612091565b610987565b60405161034d9190612039565b60405180910390f35b610370600480360381019061036b9190612587565b610a99565b005b61038c600480360381019061038791906125e3565b610bef565b6040516103999190611f85565b60405180910390f35b6103bc60048036038101906103b79190612623565b610c83565b005b60006103c982610d64565b806103d957506103d882610dde565b5b9050919050565b6060600080546103ef9061269b565b80601f016020809104026020016040519081016040528092919081815260200182805461041b9061269b565b80156104685780601f1061043d57610100808354040283529160200191610468565b820191906000526020600020905b81548152906001019060200180831161044b57829003601f168201915b5050505050905090565b600061047d82610ec0565b6004600083815260200190815260200160002060009054906101000a900473ffffffffffffffffffffffffffffffffffffffff169050919050565b60006104c382610662565b90508073ffffffffffffffffffffffffffffffffffffffff168373ffffffffffffffffffffffffffffffffffffffff1603610533576040517f08c379a000000000000000000000000000000000000000000000000000000000815260040161052a9061273e565b60405180910390fd5b8073ffffffffffffffffffffffffffffffffffffffff16610552610f0b565b73ffffffffffffffffffffffffffffffffffffffff16148061058157506105808161057b610f0b565b610bef565b5b6105c0576040517f08c379a00000000000000000000000000000000000000000000000000000000081526004016105b7906127d0565b60405180910390fd5b6105ca8383610f13565b505050565b6105e06105da610f0b565b82610fcc565b61061f576040517f08c379a000000000000000000000000000000000000000000000000000000000815260040161061690612862565b60405180910390fd5b61062a838383611061565b505050565b61064a838383604051806020016040528060008152506108bb565b505050565b600860009054906101000a900460ff1681565b6000806002600084815260200190815260200160002060009054906101000a900473ffffffffffffffffffffffffffffffffffffffff169050600073ffffffffffffffffffffffffffffffffffffffff168173ffffffffffffffffffffffffffffffffffffffff160361070a576040517f08c379a0000000000000000000000000000000000000000000000000000000008152600401610701906128ce565b60405180910390fd5b80915050919050565b60008073ffffffffffffffffffffffffffffffffffffffff168273ffffffffffffffffffffffffffffffffffffffff1603610783576040517f08c379a000000000000000000000000000000000000000000000000000000000815260040161077a90612960565b60405180910390fd5b600360008373ffffffffffffffffffffffffffffffffffffffff1673ffffffffffffffffffffffffffffffffffffffff168152602001908152602001600020549050919050565b6000600a60009054906101000a900473ffffffffffffffffffffffffffffffffffffffff16905090565b6060600180546108039061269b565b80601f016020809104026020016040519081016040528092919081815260200182805461082f9061269b565b801561087c5780601f106108515761010080835404028352916020019161087c565b820191906000526020600020905b81548152906001019060200180831161085f57829003601f168201915b5050505050905090565b610898610891610f0b565b83836112c7565b5050565b60606108b6600860009054906101000a900460ff16611433565b905090565b6108cc6108c6610f0b565b83610fcc565b61090b576040517f08c379a000000000000000000000000000000000000000000000000000000000815260040161090290612862565b60405180910390fd5b610917848484846116a3565b50505050565b606060405180606001604052806031815260200161311960319139610962600860009054906101000a900460ff16600581111561095d5761095c6121d9565b5b6116ff565b6040516020016109739291906129bc565b604051602081830303815290604052905090565b606061099282610ec0565b60006006600084815260200190815260200160002080546109b29061269b565b80601f01602080910402602001604051908101604052809291908181526020018280546109de9061269b565b8015610a2b5780601f10610a0057610100808354040283529160200191610a2b565b820191906000526020600020905b815481529060010190602001808311610a0e57829003601f168201915b505050505090506000610a3c61185f565b90506000815103610a51578192505050610a94565b600082511115610a86578082604051602001610a6e9291906129bc565b60405160208183030381529060405292505050610a94565b610a8f84611876565b925050505b919050565b3373ffffffffffffffffffffffffffffffffffffffff16600a60009054906101000a900473ffffffffffffffffffffffffffffffffffffffff1673ffffffffffffffffffffffffffffffffffffffff1614610b29576040517f08c379a0000000000000000000000000000000000000000000000000000000008152600401610b2090612a2c565b60405180910390fd5b600260075403610b6e576040517f08c379a0000000000000000000000000000000000000000000000000000000008152600401610b6590612a98565b60405180910390fd5b600260078190555060096000815480929190610b8990612ae7565b919050555060006009549050610b9f83826118de565b610ba981836118fc565b7fac60a09674f049f6a63c51f373fb7febaf74a582f3a9f82cd39275be73988d218183604051610bda929190612b2f565b60405180910390a15060016007819055505050565b6000600560008473ffffffffffffffffffffffffffffffffffffffff1673ffffffffffffffffffffffffffffffffffffffff16815260200190815260200160002060008373ffffffffffffffffffffffffffffffffffffffff1673ffffffffffffffffffffffffffffffffffffffff16815260200190815260200160002060009054906101000a900460ff16905092915050565b3373ffffffffffffffffffffffffffffffffffffffff16600a60009054906101000a900473ffffffffffffffffffffffffffffffffffffffff1673ffffffffffffffffffffffffffffffffffffffff1614610d13576040517f08c379a0000000000000000000000000000000000000000000000000000000008152600401610d0a90612a2c565b60405180910390fd5b80600b9080519060200190610d29929190611e2e565b507fbf212f907e9933754ffa70bbc0251a1fe289759b6660bff05ba9c028bfda364b81604051610d599190612039565b60405180910390a150565b60007f649a51a8000000000000000000000000000000000000000000000000000000007bffffffffffffffffffffffffffffffffffffffffffffffffffffffff1916827bffffffffffffffffffffffffffffffffffffffffffffffffffffffff19161480610dd75750610dd682610dde565b5b9050919050565b60007f80ac58cd000000000000000000000000000000000000000000000000000000007bffffffffffffffffffffffffffffffffffffffffffffffffffffffff1916827bffffffffffffffffffffffffffffffffffffffffffffffffffffffff19161480610ea957507f5b5e139f000000000000000000000000000000000000000000000000000000007bffffffffffffffffffffffffffffffffffffffffffffffffffffffff1916827bffffffffffffffffffffffffffffffffffffffffffffffffffffffff1916145b80610eb95750610eb882611970565b5b9050919050565b610ec9816119da565b610f08576040517f08c379a0000000000000000000000000000000000000000000000000000000008152600401610eff906128ce565b60405180910390fd5b50565b600033905090565b816004600083815260200190815260200160002060006101000a81548173ffffffffffffffffffffffffffffffffffffffff021916908373ffffffffffffffffffffffffffffffffffffffff160217905550808273ffffffffffffffffffffffffffffffffffffffff16610f8683610662565b73ffffffffffffffffffffffffffffffffffffffff167f8c5be1e5ebec7d5bd14f71427d1e84f3dd0314c0f7b2291e5b200ac8c7c3b92560405160405180910390a45050565b600080610fd883610662565b90508073ffffffffffffffffffffffffffffffffffffffff168473ffffffffffffffffffffffffffffffffffffffff16148061101a57506110198185610bef565b5b8061105857508373ffffffffffffffffffffffffffffffffffffffff1661104084610472565b73ffffffffffffffffffffffffffffffffffffffff16145b91505092915050565b8273ffffffffffffffffffffffffffffffffffffffff1661108182610662565b73ffffffffffffffffffffffffffffffffffffffff16146110d7576040517f08c379a00000000000000000000000000000000000000000000000000000000081526004016110ce90612bd1565b60405180910390fd5b600073ffffffffffffffffffffffffffffffffffffffff168273ffffffffffffffffffffffffffffffffffffffff1603611146576040517f08c379a000000000000000000000000000000000000000000000000000000000815260040161113d90612c63565b60405180910390fd5b611151838383611a46565b61115c600082610f13565b6001600360008573ffffffffffffffffffffffffffffffffffffffff1673ffffffffffffffffffffffffffffffffffffffff16815260200190815260200160002060008282546111ac9190612c83565b925050819055506001600360008473ffffffffffffffffffffffffffffffffffffffff1673ffffffffffffffffffffffffffffffffffffffff16815260200190815260200160002060008282546112039190612cb7565b92505081905550816002600083815260200190815260200160002060006101000a81548173ffffffffffffffffffffffffffffffffffffffff021916908373ffffffffffffffffffffffffffffffffffffffff160217905550808273ffffffffffffffffffffffffffffffffffffffff168473ffffffffffffffffffffffffffffffffffffffff167fddf252ad1be2c89b69c2b068fc378daa952ba7f163c4a11628f55a4df523b3ef60405160405180910390a46112c2838383611a4b565b505050565b8173ffffffffffffffffffffffffffffffffffffffff168373ffffffffffffffffffffffffffffffffffffffff1603611335576040517f08c379a000000000000000000000000000000000000000000000000000000000815260040161132c90612d59565b60405180910390fd5b80600560008573ffffffffffffffffffffffffffffffffffffffff1673ffffffffffffffffffffffffffffffffffffffff16815260200190815260200160002060008473ffffffffffffffffffffffffffffffffffffffff1673ffffffffffffffffffffffffffffffffffffffff16815260200190815260200160002060006101000a81548160ff0219169083151502179055508173ffffffffffffffffffffffffffffffffffffffff168373ffffffffffffffffffffffffffffffffffffffff167f17307eab39ab6107e8899845ad3d59bd9653f200f220920489ca2b5937696c31836040516114269190611f85565b60405180910390a3505050565b6060600682600581111561144a576114496121d9565b5b60ff16111561145857600080fd5b81600581111561146b5761146a6121d9565b5b6000600581111561147f5761147e6121d9565b5b036114c1576040518060400160405280600781526020017f4342455f43433000000000000000000000000000000000000000000000000000815250905061169e565b8160058111156114d4576114d36121d9565b5b600160058111156114e8576114e76121d9565b5b0361152a576040518060400160405280600781526020017f4342455f45435200000000000000000000000000000000000000000000000000815250905061169e565b81600581111561153d5761153c6121d9565b5b60026005811115611551576115506121d9565b5b03611593576040518060400160405280600881526020017f4342455f4e454352000000000000000000000000000000000000000000000000815250905061169e565b8160058111156115a6576115a56121d9565b5b600360058111156115ba576115b96121d9565b5b036115fc576040518060400160405280600b81526020017f4342455f4e4543525f4853000000000000000000000000000000000000000000815250905061169e565b81600581111561160f5761160e6121d9565b5b60046005811115611623576116226121d9565b5b03611665576040518060400160405280600681526020017f4342455f50520000000000000000000000000000000000000000000000000000815250905061169e565b6040518060400160405280600981526020017f4342455f50525f4853000000000000000000000000000000000000000000000081525090505b919050565b6116ae848484611061565b6116ba84848484611a50565b6116f9576040517f08c379a00000000000000000000000000000000000000000000000000000000081526004016116f090612deb565b60405180910390fd5b50505050565b606060008203611746576040518060400160405280600181526020017f3000000000000000000000000000000000000000000000000000000000000000815250905061185a565b600082905060005b6000821461177857808061176190612ae7565b915050600a826117719190612e3a565b915061174e565b60008167ffffffffffffffff81111561179457611793612338565b5b6040519080825280601f01601f1916602001820160405280156117c65781602001600182028036833780820191505090505b5090505b60008514611853576001826117df9190612c83565b9150600a856117ee9190612e6b565b60306117fa9190612cb7565b60f81b8183815181106118105761180f612e9c565b5b60200101907effffffffffffffffffffffffffffffffffffffffffffffffffffffffffffff1916908160001a905350600a8561184c9190612e3a565b94506117ca565b8093505050505b919050565b606060405180602001604052806000815250905090565b606061188182610ec0565b600061188b61185f565b905060008151116118ab57604051806020016040528060008152506118d6565b806118b5846116ff565b6040516020016118c69291906129bc565b6040516020818303038152906040525b915050919050565b6118f8828260405180602001604052806000815250611bd7565b5050565b611905826119da565b611944576040517f08c379a000000000000000000000000000000000000000000000000000000000815260040161193b90612f3d565b60405180910390fd5b8060066000848152602001908152602001600020908051906020019061196b929190611e2e565b505050565b60007f01ffc9a7000000000000000000000000000000000000000000000000000000007bffffffffffffffffffffffffffffffffffffffffffffffffffffffff1916827bffffffffffffffffffffffffffffffffffffffffffffffffffffffff1916149050919050565b60008073ffffffffffffffffffffffffffffffffffffffff166002600084815260200190815260200160002060009054906101000a900473ffffffffffffffffffffffffffffffffffffffff1673ffffffffffffffffffffffffffffffffffffffff1614159050919050565b505050565b505050565b6000611a718473ffffffffffffffffffffffffffffffffffffffff16611c32565b15611bca578373ffffffffffffffffffffffffffffffffffffffff1663150b7a02611a9a610f0b565b8786866040518563ffffffff1660e01b8152600401611abc9493929190612fb2565b6020604051808303816000875af1925050508015611af857506040513d601f19601f82011682018060405250810190611af59190613013565b60015b611b7a573d8060008114611b28576040519150601f19603f3d011682016040523d82523d6000602084013e611b2d565b606091505b506000815103611b72576040517f08c379a0000000000000000000000000000000000000000000000000000000008152600401611b6990612deb565b60405180910390fd5b805181602001fd5b63150b7a0260e01b7bffffffffffffffffffffffffffffffffffffffffffffffffffffffff1916817bffffffffffffffffffffffffffffffffffffffffffffffffffffffff191614915050611bcf565b600190505b949350505050565b611be18383611c55565b611bee6000848484611a50565b611c2d576040517f08c379a0000000000000000000000000000000000000000000000000000000008152600401611c2490612deb565b60405180910390fd5b505050565b6000808273ffffffffffffffffffffffffffffffffffffffff163b119050919050565b600073ffffffffffffffffffffffffffffffffffffffff168273ffffffffffffffffffffffffffffffffffffffff1603611cc4576040517f08c379a0000000000000000000000000000000000000000000000000000000008152600401611cbb9061308c565b60405180910390fd5b611ccd816119da565b15611d0d576040517f08c379a0000000000000000000000000000000000000000000000000000000008152600401611d04906130f8565b60405180910390fd5b611d1960008383611a46565b6001600360008473ffffffffffffffffffffffffffffffffffffffff1673ffffffffffffffffffffffffffffffffffffffff1681526020019081526020016000206000828254611d699190612cb7565b92505081905550816002600083815260200190815260200160002060006101000a81548173ffffffffffffffffffffffffffffffffffffffff021916908373ffffffffffffffffffffffffffffffffffffffff160217905550808273ffffffffffffffffffffffffffffffffffffffff16600073ffffffffffffffffffffffffffffffffffffffff167fddf252ad1be2c89b69c2b068fc378daa952ba7f163c4a11628f55a4df523b3ef60405160405180910390a4611e2a60008383611a4b565b5050565b828054611e3a9061269b565b90600052602060002090601f016020900481019282611e5c5760008555611ea3565b82601f10611e7557805160ff1916838001178555611ea3565b82800160010185558215611ea3579182015b82811115611ea2578251825591602001919060010190611e87565b5b509050611eb09190611eb4565b5090565b5b80821115611ecd576000816000905550600101611eb5565b5090565b6000604051905090565b600080fd5b600080fd5b60007fffffffff0000000000000000000000000000000000000000000000000000000082169050919050565b611f1a81611ee5565b8114611f2557600080fd5b50565b600081359050611f3781611f11565b92915050565b600060208284031215611f5357611f52611edb565b5b6000611f6184828501611f28565b91505092915050565b60008115159050919050565b611f7f81611f6a565b82525050565b6000602082019050611f9a6000830184611f76565b92915050565b600081519050919050565b600082825260208201905092915050565b60005b83811015611fda578082015181840152602081019050611fbf565b83811115611fe9576000848401525b50505050565b6000601f19601f8301169050919050565b600061200b82611fa0565b6120158185611fab565b9350612025818560208601611fbc565b61202e81611fef565b840191505092915050565b600060208201905081810360008301526120538184612000565b905092915050565b6000819050919050565b61206e8161205b565b811461207957600080fd5b50565b60008135905061208b81612065565b92915050565b6000602082840312156120a7576120a6611edb565b5b60006120b58482850161207c565b91505092915050565b600073ffffffffffffffffffffffffffffffffffffffff82169050919050565b60006120e9826120be565b9050919050565b6120f9816120de565b82525050565b600060208201905061211460008301846120f0565b92915050565b612123816120de565b811461212e57600080fd5b50565b6000813590506121408161211a565b92915050565b6000806040838503121561215d5761215c611edb565b5b600061216b85828601612131565b925050602061217c8582860161207c565b9150509250929050565b60008060006060848603121561219f5761219e611edb565b5b60006121ad86828701612131565b93505060206121be86828701612131565b92505060406121cf8682870161207c565b9150509250925092565b7f4e487b7100000000000000000000000000000000000000000000000000000000600052602160045260246000fd5b60068110612219576122186121d9565b5b50565b600081905061222a82612208565b919050565b600061223a8261221c565b9050919050565b61224a8161222f565b82525050565b60006020820190506122656000830184612241565b92915050565b60006020828403121561228157612280611edb565b5b600061228f84828501612131565b91505092915050565b6122a18161205b565b82525050565b60006020820190506122bc6000830184612298565b92915050565b6122cb81611f6a565b81146122d657600080fd5b50565b6000813590506122e8816122c2565b92915050565b6000806040838503121561230557612304611edb565b5b600061231385828601612131565b9250506020612324858286016122d9565b9150509250929050565b600080fd5b600080fd5b7f4e487b7100000000000000000000000000000000000000000000000000000000600052604160045260246000fd5b61237082611fef565b810181811067ffffffffffffffff8211171561238f5761238e612338565b5b80604052505050565b60006123a2611ed1565b90506123ae8282612367565b919050565b600067ffffffffffffffff8211156123ce576123cd612338565b5b6123d782611fef565b9050602081019050919050565b82818337600083830152505050565b6000612406612401846123b3565b612398565b90508281526020810184848401111561242257612421612333565b5b61242d8482856123e4565b509392505050565b600082601f83011261244a5761244961232e565b5b813561245a8482602086016123f3565b91505092915050565b6000806000806080858703121561247d5761247c611edb565b5b600061248b87828801612131565b945050602061249c87828801612131565b93505060406124ad8782880161207c565b925050606085013567ffffffffffffffff8111156124ce576124cd611ee0565b5b6124da87828801612435565b91505092959194509250565b600067ffffffffffffffff82111561250157612500612338565b5b61250a82611fef565b9050602081019050919050565b600061252a612525846124e6565b612398565b90508281526020810184848401111561254657612545612333565b5b6125518482856123e4565b509392505050565b600082601f83011261256e5761256d61232e565b5b813561257e848260208601612517565b91505092915050565b6000806040838503121561259e5761259d611edb565b5b60006125ac85828601612131565b925050602083013567ffffffffffffffff8111156125cd576125cc611ee0565b5b6125d985828601612559565b9150509250929050565b600080604083850312156125fa576125f9611edb565b5b600061260885828601612131565b925050602061261985828601612131565b9150509250929050565b60006020828403121561263957612638611edb565b5b600082013567ffffffffffffffff81111561265757612656611ee0565b5b61266384828501612559565b91505092915050565b7f4e487b7100000000000000000000000000000000000000000000000000000000600052602260045260246000fd5b600060028204905060018216806126b357607f821691505b6020821081036126c6576126c561266c565b5b50919050565b7f4552433732313a20617070726f76616c20746f2063757272656e74206f776e6560008201527f7200000000000000000000000000000000000000000000000000000000000000602082015250565b6000612728602183611fab565b9150612733826126cc565b604082019050919050565b600060208201905081810360008301526127578161271b565b9050919050565b7f4552433732313a20617070726f76652063616c6c6572206973206e6f7420746f60008201527f6b656e206f776e6572206e6f7220617070726f76656420666f7220616c6c0000602082015250565b60006127ba603e83611fab565b91506127c58261275e565b604082019050919050565b600060208201905081810360008301526127e9816127ad565b9050919050565b7f4552433732313a2063616c6c6572206973206e6f7420746f6b656e206f776e6560008201527f72206e6f7220617070726f766564000000000000000000000000000000000000602082015250565b600061284c602e83611fab565b9150612857826127f0565b604082019050919050565b6000602082019050818103600083015261287b8161283f565b9050919050565b7f4552433732313a20696e76616c696420746f6b656e2049440000000000000000600082015250565b60006128b8601883611fab565b91506128c382612882565b602082019050919050565b600060208201905081810360008301526128e7816128ab565b9050919050565b7f4552433732313a2061646472657373207a65726f206973206e6f74206120766160008201527f6c6964206f776e65720000000000000000000000000000000000000000000000602082015250565b600061294a602983611fab565b9150612955826128ee565b604082019050919050565b600060208201905081810360008301526129798161293d565b9050919050565b600081905092915050565b600061299682611fa0565b6129a08185612980565b93506129b0818560208601611fbc565b80840191505092915050565b60006129c8828561298b565b91506129d4828461298b565b91508190509392505050565b7f63616c6c6572206973206e6f742063726561746f720000000000000000000000600082015250565b6000612a16601583611fab565b9150612a21826129e0565b602082019050919050565b60006020820190508181036000830152612a4581612a09565b9050919050565b7f5265656e7472616e637947756172643a207265656e7472616e742063616c6c00600082015250565b6000612a82601f83611fab565b9150612a8d82612a4c565b602082019050919050565b60006020820190508181036000830152612ab181612a75565b9050919050565b7f4e487b7100000000000000000000000000000000000000000000000000000000600052601160045260246000fd5b6000612af28261205b565b91507fffffffffffffffffffffffffffffffffffffffffffffffffffffffffffffffff8203612b2457612b23612ab8565b5b600182019050919050565b6000604082019050612b446000830185612298565b8181036020830152612b568184612000565b90509392505050565b7f4552433732313a207472616e736665722066726f6d20696e636f72726563742060008201527f6f776e6572000000000000000000000000000000000000000000000000000000602082015250565b6000612bbb602583611fab565b9150612bc682612b5f565b604082019050919050565b60006020820190508181036000830152612bea81612bae565b9050919050565b7f4552433732313a207472616e7366657220746f20746865207a65726f2061646460008201527f7265737300000000000000000000000000000000000000000000000000000000602082015250565b6000612c4d602483611fab565b9150612c5882612bf1565b604082019050919050565b60006020820190508181036000830152612c7c81612c40565b9050919050565b6000612c8e8261205b565b9150612c998361205b565b925082821015612cac57612cab612ab8565b5b828203905092915050565b6000612cc28261205b565b9150612ccd8361205b565b9250827fffffffffffffffffffffffffffffffffffffffffffffffffffffffffffffffff03821115612d0257612d01612ab8565b5b828201905092915050565b7f4552433732313a20617070726f766520746f2063616c6c657200000000000000600082015250565b6000612d43601983611fab565b9150612d4e82612d0d565b602082019050919050565b60006020820190508181036000830152612d7281612d36565b9050919050565b7f4552433732313a207472616e7366657220746f206e6f6e20455243373231526560008201527f63656976657220696d706c656d656e7465720000000000000000000000000000602082015250565b6000612dd5603283611fab565b9150612de082612d79565b604082019050919050565b60006020820190508181036000830152612e0481612dc8565b9050919050565b7f4e487b7100000000000000000000000000000000000000000000000000000000600052601260045260246000fd5b6000612e458261205b565b9150612e508361205b565b925082612e6057612e5f612e0b565b5b828204905092915050565b6000612e768261205b565b9150612e818361205b565b925082612e9157612e90612e0b565b5b828206905092915050565b7f4e487b7100000000000000000000000000000000000000000000000000000000600052603260045260246000fd5b7f45524337323155524953746f726167653a2055524920736574206f66206e6f6e60008201527f6578697374656e7420746f6b656e000000000000000000000000000000000000602082015250565b6000612f27602e83611fab565b9150612f3282612ecb565b604082019050919050565b60006020820190508181036000830152612f5681612f1a565b9050919050565b600081519050919050565b600082825260208201905092915050565b6000612f8482612f5d565b612f8e8185612f68565b9350612f9e818560208601611fbc565b612fa781611fef565b840191505092915050565b6000608082019050612fc760008301876120f0565b612fd460208301866120f0565b612fe16040830185612298565b8181036060830152612ff38184612f79565b905095945050505050565b60008151905061300d81611f11565b92915050565b60006020828403121561302957613028611edb565b5b600061303784828501612ffe565b91505092915050565b7f4552433732313a206d696e7420746f20746865207a65726f2061646472657373600082015250565b6000613076602083611fab565b915061308182613040565b602082019050919050565b600060208201905081810360008301526130a581613069565b9050919050565b7f4552433732313a20746f6b656e20616c7265616479206d696e74656400000000600082015250565b60006130e2601c83611fab565b91506130ed826130ac565b602082019050919050565b60006020820190508181036000830152613111816130d5565b905091905056fe61723a2f2f5f44396b4e3157724e576243713535425341475262544234625333763851415054596d42546853625833412fa2646970667358221220399cb9722fec335c14a7dda896397581a49c52e7aea7b510828497dad6aa552364736f6c634300080d0033",
  "linkReferences": {},
  "deployedLinkReferences": {}
}